:020000040800F2
:1000000000000220F9B4000879B300087BB30008AF
:100010007DB300087FB3000881B300080000000032
:10002000000000000000000000000000F11C0008BB
:1000300083B3000800000000811D0008E51D0008D2
:1000400049B5000849B5000849B5000849B5000898
:1000500049B5000849B5000849B5000849B5000888
:1000600049B5000849B5000849B5000849B5000878
:1000700049B5000849B5000849B5000849B5000868
:1000800049B5000849B5000849B5000849B5000858
:1000900049B5000849B5000849B5000849B5000848
:1000A00049B5000885B3000849B5000849B50008FE
:1000B00049B5000849B5000849B5000849B5000828
:1000C00049B5000849B5000849B5000849B5000818
:1000D00049B5000849B5000849B5000849B5000808
:1000E00049B5000849B5000849B5000849B50008F8
:1000F00049B5000849B5000849B5000849B50008E8
:1001000049B5000849B5000849B5000849B50008D7
:1001100049B5000849B5000849B5000849B50008C7
:1001200049B5000849B5000849B5000849B50008B7
:1001300049B5000891B3000849B5000849B5000861
:1001400049B5000849B5000849B5000849B5000897
:1001500049B5000849B5000849B5000849B5000887
:1001600049B5000849B5000849B5000849B5000877
:1001700049B5000849B5000849B50008000000006D
:0801800049B5000849B500086B
:1001900010B5054C237833B9044B13B10448AFF3C1
:1001A00000800123237010BDC80000200000000063
:1001B00044C4000808B5034B1BB103490348AFF31F
:1001C000008008BD00000000CC00002044C40008EE
:1001D00001F0FF01102A2BDB10F0070F08D010F8F8
:1001E000013B013A8B422DD010F0070F42B3F6D1FC
:1001F000F0B441EA012141EA014122F007047FF015
:1002000000070023F0E80256083C85EA010586EA6B
:10021000010685FA47F5A3FA87F586FA47F6A5FAA7
:1002200087F68EB9EED1F0BC01F0FF0102F00702B3
:1002300032B110F8013B013A83EA010313B1F8D15E
:100240000020704701387047002D06BF354603383F
:10025000073815F0010F07D1013015F4807F02BF78
:10026000013015F4C03F0130F0BC0138704700BFC9
:1002700053B94AB9002908BF00281CBF4FF0FF310D
:100280004FF0FF3000F07AB9ADF1080C6DE904CE03
:1002900000F006F8DDF804E0DDE9022304B0704761
:1002A0002DE9F0478C460D460446089E002B51D19F
:1002B0008A4217466DD9B2FA82FEBEF1000F0BD00A
:1002C000CEF1200C01FA0EF520FA0CFC02FA0EF722
:1002D0004CEA050C00FA0EF44FEA174A250CBCFB59
:1002E000FAF81FFA87F90AFB18CC45EA0C4508FB17
:1002F00009F3AB420AD9ED1908F1FF3280F02381EE
:10030000AB4240F22081A8F102083D44ED1AA4B2AC
:10031000B5FBFAF00AFB105544EA054400FB09F965
:10032000A14509D9E41900F1FF3380F00A81A14504
:1003300040F2078102383C44A4EB090440EA08403B
:100340000021002E61D024FA0EF400233460736083
:10035000BDE8F0878B4207D9002E54D0002186E8F3
:1003600021000846BDE8F087B3FA83F1002940F088
:100370008E80AB4202D3824200F2FA80841A65EB8F
:1003800003050120AC46002E3FD086E81010BDE8E2
:10039000F08712B90127B7FBF2F7B7FA87FEBEF173
:1003A000000F34D1EB1B3A0C1FFA87FC0121B3FB81
:1003B000F2F8250C02FB183345EA03450CFB08F361
:1003C000AB4207D9ED1908F1FF3002D2AB4200F27F
:1003D000D1808046ED1AA3B2B5FBF2F002FB1055B6
:1003E00043EA05440CFB00FCA44507D9E41900F1DD
:1003F000FF3302D2A44500F2B8801846A4EB0C04E7
:1004000040EA08409DE731463046BDE8F087CEF12E
:10041000200405FA0EF307FA0EF720FA04F83A0C56
:1004200025FA04F448EA0308B4FBF2F14FEA184550
:1004300002FB11441FFA87FC45EA044501FB0CF35B
:10044000AB4200FA0EF409D9ED1901F1FF3080F04A
:100450008A80AB4240F2878002393D44EB1A1FFA92
:1004600088F5B3FBF2F002FB103345EA034500FBCD
:100470000CF3AB4207D9ED1900F1FF386FD2AB4254
:100480006DD902383D44EB1A40EA01418FE7C1F1D2
:10049000200722FA07F88B4005FA01F448EA030323
:1004A00020FA07FE4FEA134CFD404EEA040EB5FB5E
:1004B000FCF94FEA1E440CFB19551FFA83F844EA75
:1004C000054509FB08F4AC4202FA01F200FA01FA10
:1004D00008D9ED1809F1FF3043D2AC4241D9A9F156
:1004E00002091D442D1B1FFA8EFEB5FBFCF00CFB10
:1004F00010554EEA054400FB08F8A04507D9E4185A
:1005000000F1FF3529D2A04527D902381C4440EA22
:100510000940A4EB0804A0FB02894C45C6464D46A1
:1005200015D312D056B1BAEB0E0364EB050404FAEE
:1005300007F7CB401F43CC40376074600021BDE813
:10054000F0871846F8E69046E0E6C245EAD2B8EBF6
:10055000020E69EB03050138E4E72846D7E7404679
:1005600091E78146BEE7014678E702383C4445E71B
:10057000084608E7A8F102083D442BE7704700BF92
:1005800008B50B4B1A6842F400721A601A6842F4FC
:1005900080621A601A6842F480721A60032000F0C8
:1005A0002FF800200AF0AAFE0AF086FE002008BDFF
:1005B000003C0240034A044B11681B780B44136053
:1005C000704700BF2088002000000020014B186801
:1005D000704700BF2088002038B50446FFF7F6FFBB
:1005E000631C1CBF054B1B78054618BFE418FFF7BA
:1005F000EDFF401B8442FAD838BD00BF0000002048
:10060000074AD36823F4E0631B041B0C43F0BF6369
:10061000000243F4003300F4E0600343D36070470A
:1006200000ED00E0174B30B5DC68C4F30224C4F1E0
:100630000703251D042B28BF0423062D4FF00105B9
:1006400005FA03F303F1FF338CBF033C0024194088
:10065000A14005FA04F4013C2240002842EA0102CC
:100660004FEA0212AFBF00F1604000F00F00064BEE
:10067000D2B2A5BF00F56140D2B21A5480F800236F
:1006800030BD00BF00ED00E014ED00E042090123A1
:1006900000F01F0003FA00F0014B43F822007047FE
:1006A00000E100E082B0074B4FF4FA521B68B3FB45
:1006B000F2F3019300BF019B5A1E0192002BF9D166
:1006C00002B070476000002007B50023019341F29B
:1006D000180103685A5842F480125A505B5801932B
:1006E000FFF7E0FF019A03685A5003B05DF804FB7E
:1006F00070B5044629B14FF40063C3604FF48043E2
:100700008360E3692268E0681568002BA36843EA08
:100710000003304843F4007300EA05000CBF4FF4B7
:100720008061002103430B43136001201568FFF72C
:1007300053FF236840221D6001205A605D68FFF767
:100740004BFF23685D6000259D60DD609A6922F0A3
:10075000BE021204120C42F080029A6101209E69CE
:10076000FFF73AFF236801209E61DD61DD69FFF735
:1007700033FF2268184BD56141F218050120515909
:100780000B4043F0087343F0040353515659FFF7ED
:1007900023FF2368114A5E5103F5805301201A603C
:1007A0001D68FFF719FF226802F580531D60A369D9
:1007B000012B07D141F21C01535843F4803343F01D
:1007C000400353506369064A998811601A68054BC3
:1007D0001A6070BD0F8120FF233FDEF88020C10228
:1007E0004080024044800240F0B590F84540012C22
:1007F0004FF0020433D0012580F8455080F8444082
:10080000C16201F1200400254FF4801740F2F45E2C
:1008100003F1FF3C9D420BD1026841F21003D1501D
:10082000012380F84430002380F845301846F0BD9D
:100830000EFB052644F8186CC66944F8207C2EB9D6
:1008400054F8206C46F4400644F8206C65452CBFF3
:100850000E46264644F8146C01352034DAE720466B
:10086000F0BD2DE9F04190F84540012C4FF0020415
:1008700030D0012580F8455080F84440816201F174
:10088000200400254FF0004644F2F45740F2F45E95
:1008900003F1FF3C9D420CD1026841F20C03D150A0
:1008A000012380F84430002380F845301846BDE825
:1008B000F0810EFB052844F8188C65452CBF88464E
:1008C000A04644F8206C44F81C7C44F8148C013594
:1008D0002034DFE72046BDE8F081000090F8453085
:1008E000012BF0B54FF0020368D0012280F84520BB
:1008F00080F8443029B980F8442080F8451010462B
:10090000F0BDC36A1C68002C06DA122380F844305C
:10091000002380F84530F2E740F2F454A1422ED98A
:10092000B1FBF4F204FB12143CB30132244C01F28B
:10093000F45104FB0211C1F30C01002440F2F456FF
:10094000571E1D6825F040551D601CB91D6845F0F7
:1009500080551D60A74208BF1D685E6004BF45F05A
:1009600000551D601D6808BF5960013445F0004501
:1009700094421D60DB68E4D10DE0012AD6D11A68EB
:1009800042F040521A601A68C1F30C0142F0004272
:1009900059601A60DB68C36241F214020368995817
:1009A000490705D50421995041F2040200219950CC
:1009B000012380F84430002380F845301846F0BD0C
:1009C0000CFAFFFF90F84530012B30B54FF00203D1
:1009D0003BD0012280F8452080F8443005241146A0
:1009E000836A1A68002A01DB013C06D10123002238
:1009F00080F8443080F8452027E01A68DD6802F46A
:100A00004072B2F5007F03D1036381638562E7E73B
:100A10001A6812F4407F826B02D101328263F5E7DB
:100A20000132012A08BF036343631B688263C3F377
:100A30000D43043BC363036B9B680364012380F88D
:100A400044300023856280F84530184630BD704739
:100A5000704770B5026841F214060446955915F0C6
:100A6000400521D009F096FD236840229A510123C8
:100A700084F84430002384F84530236841F214059B
:100A80004FF480325A515B591B040CD52046FFF7B6
:100A9000DFFF23684FF400425A51012384F84430A9
:100AA000002384F8453070BD9359DA07E5D5FFF788
:100AB000CEFF22680123935184F8443084F84550D6
:100AC000DBE7F8B590F84430822B0546164630D067
:100AD0000268822380F844301369890101F4F864C4
:100AE00003F01C012143048AE402A4B20C4344F045
:100AF00001041461FFF76AFD074614F0010007D1F5
:100B00002B685B699BB23360012385F84430F8BDE4
:100B1000FFF75CFDC01BB0F5803F07D3012385F8CC
:100B20004430002385F845300320F8BD2B681C694C
:100B3000E3E70220F8BD90F84430422B70B505463B
:100B40002ED0422380F8443003688C01186904F4E5
:100B5000F86444F0030400F01C0020432C8AE402F3
:100B6000A4B2044392B25A611C61FFF72FFD0646FE
:100B700014F0010003D1012385F8443070BDFFF764
:100B800025FD801BB0F5803F07D3012385F8443055
:100B9000002385F84530032070BD2B681C69E7E70A
:100BA000022070BDF7B5002300930446002800F032
:100BB000DE8090F8443003F0FF021BB980F8452036
:100BC00009F08CFC002301936A4B5A6C42F480427A
:100BD0005A645B6C03F480430193019B664B5A6833
:100BE00022F400025A605A68216A0A435A60236854
:100BF00003F580531A6842F001021A60FFF7E6FC21
:100C00000546236803F580521268D0071DD41D697C
:100C100000F034FC594B5A4A0344934225F01C051A
:100C200022D845F0080523684FF400421D610021D9
:100C30002046FFF780FF054668B3012120460125C5
:100C4000FFF756FD84F844500BE0FFF7BFFC401B54
:100C5000B0F5FA7FD5D90325002384F8445084F8F1
:100C60004530284603B0F0BD464B474A0344934203
:100C700002D845F00C05D6E7444B454A034493425D
:100C8000D1D9444B444A0344934294BF45F00405F0
:100C900045F01005C7E7FF20FFF79EFC6368002BB7
:100CA00053D0FFF793FC41F2883706466A4601218C
:100CB0002046FFF706FFFFF789FC801BB8420BD9DF
:100CC00001212046FFF714FD012384F8443000235E
:100CD00084F845300325C4E7009B5907E6D54FF457
:100CE000805200212046FFF726FF0028A5D1FFF7FC
:100CF0006DFC41F2883706466A4601212046FFF71F
:100D0000E0FEFFF763FC801BB842D9D8009B9A062F
:100D1000F2D56A461F212046FFF7D3FE00288CD16A
:100D2000009B13F0100218BF4FF400625B074CBF2A
:100D300000234FF48043E260A36000212046FFF7C8
:100D4000D7FC012384F844308BE7A368E2685B0892
:100D500043EAD20292B229462046FFF7ECFE002871
:100D60007FF46BAF40F6FF70FFF736FCE5E7012537
:100D700077E700BF003802400038014000D3CEFEC4
:100D8000BFE1E40040F1E9FD3F787D0100796CFCB2
:100D9000FF596202001F0AFA7FF0FA0290F845300C
:100DA000012B73B505464FF0020031D000242B68AB
:100DB00085F8440001941A68012642F0080285F87B
:100DC00045601A601B680193FFF76CFC2B68019A61
:100DD0001A6000941A6842F004021A601B680093BB
:100DE000FFF760FC2B68009A1A602846FFF76CFC3E
:100DF0002A6841F218032046D15841F40051D150DD
:100E0000D15841F00201D15085F8446085F8454041
:100E100002B070BD2DE9F04F85B00B68DFF8AC81F2
:100E2000684ADFF8AC91019300234FF0010E019C5A
:100E30000EFA03FE0EEA0406B64540F0AE804C689A
:100E400024F01007022F16D14FEAD30A00EB8A0ACA
:100E500003F0070BDAF820504FEA8B0B4FF00F0C22
:100E60000CFA0BFC25EA0C0C0D6905FA0BF545EAAA
:100E70000C05CAF820504FEA430A0325D0F800B009
:100E800005FA0AF5ED4304F0030C0BEA050B0CFA26
:100E90000AFC013F4CEA0B0C012FC0F800C011D82E
:100EA000876807EA050BCF6807FA0AFC4CEA0B07CC
:100EB0008760476827EA0E0EC4F300179F4047EA91
:100EC0000E074760C7683D408F6807FA0AF73D4341
:100ED000C560E50061D54FF0000BCDF80CB0D8F837
:100EE0004470394D47F48047C8F84470D8F84470CE
:100EF00007F480470397039F23F0030707F1804718
:100F000007F59C3703F0030CD7F808A04FEA8C0CC8
:100F10004FF00F0E0EFA0CFEA8422AEA0E0E43D036
:100F200005F58065A84241D005F58065A8423FD00F
:100F300005F58065A8423DD005F58065A8423BD007
:100F400048453BD005F50065A84239D005F58065D8
:100F5000A84214BF0825072505FA0CF545EA0E0539
:100F6000BD601568F74314F4803F0CBF3D40354326
:100F70001560556814F4003F0CBF3D403543556083
:100F8000956814F4801F0CBF3D4035439560D568CB
:100F9000A40254BF3D403543D5600133102B7FF48C
:100FA00044AF05B0BDE8F08F5D46D5E70125D3E736
:100FB0000225D1E70325CFE70425CDE70525CBE7BB
:100FC0000625C9E7003C014000000240003802400D
:100FD000001402400AB1816170470904FBE74369CC
:100FE00059404161704700002DE9F341044618B9AA
:100FF000012002B0BDE8F0810368DD0710D423684A
:10100000980758D423681A0700F19A8023685B0771
:1010100000F1B880A269002A40F019810020E8E7B9
:10102000A64B9A6802F00C02042A07D09A6802F0D4
:101030000C02082A0AD15B68590207D59F4B1B682E
:101040009A03DCD56368002BD9D1D1E763689B4D47
:10105000B3F5803F11D12B6843F480332B60FFF749
:10106000B5FA964D06462B689B03C8D4FFF7AEFA37
:10107000801B6428F7D90320BBE7B3F5A02F04D168
:101080002B6843F480232B60E5E72A6822F4803242
:101090002A602A6822F480222A60002BDFD1FFF721
:1010A00095FA06462B689F03A9D5FFF78FFA801B98
:1010B0006428F7D9DFE7814B9A6812F00C0F07D04C
:1010C0009A6802F00C02082A11D15B685E020ED405
:1010D0007A4B1A68950702D5E268012A88D11A6806
:1010E000216922F0F80242EAC1021A608AE7E26846
:1010F000734BB2B101221A60FFF768FA6F4D0646D2
:101100002B68980707D52B68226923F0F80343EA78
:10111000C2032B6076E7FFF759FA801B0228EFD94C
:10112000A9E71A60FFF752FA644D06462B68990743
:101130007FF568AFFFF74AFA801B0228F6D99AE7D5
:101140006269604B7AB101221A60FFF73FFA5B4D8A
:1011500006466B6F9F073FF559AFFFF737FA801BC5
:101160000228F6D987E71A60FFF730FA534D064692
:101170006B6F98077FF54AAFFFF728FA801B0228AC
:10118000F6D978E74D4B1A6C12F0805228D10192B3
:101190001A6C42F080521A641B6C03F08053019366
:1011A000019B0126484D2B68D9051BD5A368434DEB
:1011B000012B27D12B6F43F001032B67FFF706FAB2
:1011C0003E4D074641F288382B6F9B0739D5002EDC
:1011D0003FF420AF394A136C23F08053136419E7AE
:1011E0000026DFE72B6843F480732B60FFF7EEF9EE
:1011F00007462B68DA05D9D4FFF7E8F9C01B0228A7
:10120000F7D938E7052B04D12B6F43F004032B6784
:10121000D0E72A6F22F001022A672A6F22F0040227
:101220002A67002BCAD1FFF7D1F941F28838074667
:101230002B6F9807CBD5FFF7C9F9C01B4045F7D9ED
:1012400019E7FFF7C3F9C01B4045BDD913E71B4D94
:10125000AB6803F00C03082B3FF4CAAE1B4E00230F
:10126000022A336034D1FFF7B1F907462B689901A0
:101270001ED4226AE3691343626A43EA8213E26A74
:1012800043EA0263A26A0D4C5208013A43EA024360
:101290006B6001233360FFF799F9054623689A01D3
:1012A0003FF5BCAEFFF792F9401B0228F6D9E2E603
:1012B000FFF78CF9C01B0228D8D9DCE600380240C1
:1012C00000004742800E47420070004060004742E5
:1012D000FFF77CF904462B689B017FF59FAEFFF773
:1012E00075F9001B0228F6D9C5E600BF134908B5F9
:1012F0008B6803F00C03042B03D0082B03D0104899
:1013000008BD104808BD4A684B68496813F480035B
:1013100014BF0C480A48C1F3881118BF002302F01B
:101320003F02A1FB0001FEF7A3FF044B5B68C3F380
:10133000014301335B00B0FBF3F008BD003802400D
:101340000024F40040787D012DE9F0410D4604466B
:1013500010B90120BDE8F081444B1A6802F00F0279
:101360008A4228D321688F072DD4C80740D43F4B29
:101370001A6802F00F02954266D3226851076CD4B6
:10138000130707D53A4A2169936823F4604343EA77
:10139000C1039360FFF7AAFF354B364A9B68C3F33E
:1013A0000313D35CD840344B1860002009F0A6FF2B
:1013B0000020BDE8F081CAB21A701B6803F00F0369
:1013C0009942C6D1CEE72A4B11F0040F1EBF9A688E
:1013D00042F4E0529A600E0742BF9A6842F46042BB
:1013E0009A609A68A06822F0F00202439A60BCE713
:1013F00062681F4B012A1DD11B6813F4003FA8D05F
:101400001B4EB36823F003031343B360FFF7DEF80A
:1014100041F288380746B368626803F00C03B3EB07
:10142000820FA4D0FFF7D2F8C01B4045F3D90320A8
:10143000BDE8F081911E01291B6802D813F0007FDE
:10144000DDE713F0020FDAE7EAB21A701B6803F067
:101450000F039D427FF47DAF8FE70549E0688B68FD
:1014600023F4E05303438B608AE700BF003C024053
:101470000038024008E6000860000020014B1868B0
:10148000704700BF60000020044B054A9B68C3F30F
:101490004233D35C034A1068D8407047003802409A
:1014A00018E60008600000200F2303600B4B9A68C9
:1014B00002F0030242609A6802F0F00282609A68C9
:1014C00002F4E052C2609B68DB0803F4E05303615E
:1014D000034B1B6803F00F030B607047003802409A
:1014E000003C0240036813F0050FF7B5054605D12F
:1014F000286810F0020028D103B0F0BD414C424EE4
:1015000000232360FFF762F8074633681B0115D4F8
:10151000AB686A681B0743EA8213C6F8843001236C
:101520002360FFF753F8384C064623681801DFD4D0
:10153000FFF74CF8801B0228F7D904E0FFF746F8C4
:10154000C01B0228E1D90320D6E7002301932E4BCC
:101550002E4C1A6C42F080521A641B6C03F08053BC
:101560000193019B236843F480732360FFF72EF8F7
:1015700006462368D9051BD5234C236F13F440730B
:101580001CD1EB6803F44072B2F5407F1E4A34D19F
:10159000916823F0704021F4F81120F44070014369
:1015A0009160116FC3F30B030B4313670020A3E794
:1015B000FFF70CF8801B0228DBD9C4E7EA6802F4C5
:1015C00040729342DDD0236F114A0121116023F450
:1015D0004073002111602367236FDA07D1D5FEF72E
:1015E000F5FF41F288370646236F9B07C9D4FEF703
:1015F000EDFF801BB842F7D9A5E7916821F4F811F7
:10160000CEE700BF6800474200380240007000404B
:10161000400E4742026838B5D36823F0A003D36078
:101620000446FEF7D3FF05462368DB689B0601D519
:10163000002038BDFEF7CAFF401BB0F57A7FF3D912
:10164000032038BD38B50368DA685206044601D570
:10165000002038BD4FF0FF32DA60FEF7B7FF0546D5
:101660002368DB685B06F3D4FEF7B0FF401BB0F5E0
:101670007A7FF5D9032038BD38B50446B8B1437F29
:1016800003F0FF0213B9027709F00AFE0223637721
:101690002368CA225A6253225A622046FFF7D2FFB9
:1016A0002368054628B1FF225A6204236377012587
:1016B0002EE09A68206922F4E00222F040029A604B
:1016C000626899680243606902430A439A60E2686B
:1016D0001A611A69A16842EA01421A61DA6822F0C5
:1016E0008002DA609B689B0605D42046FFF792FFD4
:1016F00008B12368D7E72368A1691A6C22F4802215
:101700001A641A6C0A431A64FF225A62012363772F
:10171000284638BD70470368DA6842F00102DA6093
:101720001A6842F001021A60002070477047704743
:101730007047704703681A69910710B504460ED5C3
:10174000DA6892070BD56FF002021A619B690122D9
:101750009B07027677D0FFF7EAFF00232376236802
:101760001A69500710D5DA6851070DD56FF00402D9
:101770001A619B69022213F4407F2276204668D0CA
:10178000FFF7D5FF0023237623681A6912070FD5C8
:10179000DA6810070CD56FF008021A61DB690422C1
:1017A0009907227620465AD0FFF7C1FF00232376FF
:1017B00023681A69D20610D5DA68D0060DD56FF005
:1017C00010021A61DB69082213F4407F227620465A
:1017D0004BD0FFF7ACFF0023237623681A69D107AB
:1017E00008D5DA68D20705D56FF001021A612046E4
:1017F00009F030FD23681A69100608D5DA68110669
:1018000005D56FF080021A61204600F0B4F8236815
:101810001A69520608D5DA68500605D56FF04002FD
:101820001A612046FFF785FF23681A69910622D5C1
:10183000DA6892061FD56FF0200220461A61BDE8D3
:10184000104000F097B8FFF771FF2046FFF770FFD8
:1018500083E7FFF76BFF2046FFF76AFF92E7FFF78A
:1018600065FF2046FFF764FFA0E7FFF75FFF204614
:10187000FFF75EFFAFE710BD2E4A0368904212D01B
:10188000B0F1804F0FD0A2F57C4290420BD002F510
:101890008062904207D002F58062904203D002F548
:1018A000784290421DD14A6823F070031343214AC5
:1018B000904204D1CA6823F44073134328E0B0F186
:1018C000804FF7D01C4A9042F4D002F580629042DB
:1018D000F0D002F580629042ECD002F5784290425E
:1018E000E8D0164A9042E5D002F580629042E1D0FD
:1018F00002F580629042DDD0A2F598329042D9D0B4
:1019000002F580629042D5D002F580629042D1D03B
:1019100003608B68C3620B688362064B984206D0F3
:1019200003F58063984202D00123436170470B693D
:101930000363F9E70000014000040040004001405B
:1019400010B50446A0B190F8393003F0FF021BB97E
:1019500080F83820FFF7DEFE022384F83930206853
:10196000211DFFF789FF012384F83930002010BDC5
:10197000012010BD7047704708B501F0D9F800206C
:1019800008BDEFF305830BB101F01CB901F014B9E8
:1019900030B5B0F90840028A0B4690E8220085B0C5
:1019A000842C14BF0334002403A80190009428461B
:1019B00000F0EEFF01280CBF0398002005B030BDF9
:1019C00008B5002808BF012001F00EFA002008BD6C
:1019D000012000F057BD000013B500240A46019411
:1019E000E8B1EFF30583A3B101AA214600F0D6FECA
:1019F000012802D0FF2002B010BD019B3BB1094B72
:101A00004FF080521A60BFF34F8FBFF36F8F0020EB
:101A1000F1E7194600F0FEFD0128EBD1F7E7802041
:101A2000E9E700BF04ED00E0012910B508460CD13C
:101A30000322002100F04EFC044620B100231A4688
:101A4000194600F069FC204610BD0024FBE70000A9
:101A500013B500240A460194E8B1EFF30583A3B15E
:101A600001AA214600F09AFE012802D0FF2002B010
:101A700010BD019B3BB1094B4FF080521A60BFF380
:101A80004F8FBFF36F8F0020F1E7194600F0C2FDC2
:101A90000128EBD1F7E78020E9E700BF04ED00E083
:101AA00013B500240194EFF3058393B101A900F06D
:101AB0005DFD012813D1019B13B9002002B010BDB8
:101AC000084B4FF080521A60BFF34F8FBFF36F8FF8
:101AD000F3E71A46194600F01FFC0128EDD0FF205D
:101AE000ECE700BF04ED00E0FFF7DABF002203C817
:101AF00000F0F0BB1FB5002401910394A24208BF7F
:101B00000122EFF30583ABB1234603AA01A900F03C
:101B1000CBFC012802D0FF2004B010BD039B3BB1D9
:101B2000074B4FF080521A60BFF34F8FBFF36F8F98
:101B30000020F1E701A900F0EFFB0128EBD1F7E766
:101B400004ED00E0F0B585B00026044617460846CF
:101B50000391029601AD11B98023019317E000961D
:101B6000EFF30583D3B16A4602A900F017FE0128FE
:101B700004BF10230193009B18BF01963BB10D4B8E
:101B80004FF080521A60BFF34F8FBFF36F8F95E80D
:101B9000070084E80700204605B0F0BD02A900F068
:101BA00039FD012801D11023D7E7002F0CBF0023F6
:101BB0004023D2E704ED00E0EFF305830BB100F022
:101BC00050BE00F03BBE10B5EFF305841CB900F029
:101BD00069FE204610BD822010BDFFF7F4BF00F162
:101BE000080343604FF0FF32C3600361002382604B
:101BF0000360704700230361704743684B609A6835
:101C00008A609A68516099600368086101330360D3
:101C100070470A68531C30B50AD103695A684A6094
:101C200091608B605960036808610133036030BDC7
:101C300000F108035C682568AA42EFD32346F9E760
:101C40004168826803698A60826851605968884285
:101C500008BF5A6000220261186801381860704796
:101C60000A4B1B68013308D04FF0500383F31188EF
:101C7000BFF36F8FBFF34F8FFEE74FF0500383F337
:101C80001188BFF36F8FBFF34F8FFEE70400002072
:101C900006480068006880F3088862B661B6BFF342
:101CA0004F8FBFF36F8F00DF00BF000008ED00E033
:101CB000DFF80C00016841F470010160704700001A
:101CC00088ED00E04FF0807340F8043C074B40F88B
:101CD0000C3C21F001016FF0020340F8081C40F8B1
:101CE000202C40F8243C4438704700BF611C000899
:101CF000074B19680868B0E8F04F80F30988BFF314
:101D00006F8F4FF0000080F311887047AFF30080B1
:101D1000048100204FF0500383F31188BFF36F8FCD
:101D2000BFF34F8F0A4A13680133012B13600DD1A3
:101D3000084B1B6813F0FF0F08D04FF0500383F3DC
:101D40001188BFF36F8FBFF34F8FFEE7704700BF5F
:101D50000400002004ED00E0084A136843B94FF086
:101D6000500383F31188BFF36F8FBFF34F8FFEE7EC
:101D7000013B13600BB983F3118870470400002006
:101D8000EFF30980BFF36F8F154B1A681EF0100F29
:101D900008BF20ED108A20E9F04F10604DF8043D97
:101DA0004FF0500080F31188BFF34F8FBFF36F8F58
:101DB00001F078F84FF0000080F3118808BC196832
:101DC0000868B0E8F04F1EF0100F08BFB0EC108AA2
:101DD00080F30988BFF36F8F704700BFAFF30080B7
:101DE0000481002008B54FF0500383F31188BFF33E
:101DF0006F8FBFF34F8F00F0EDFE18B1034B4FF024
:101E000080521A60002383F3118808BD04ED00E0BE
:101E1000064B4FF47A721B68B3FBF2F3044A013BA2
:101E20001360044B07221A60704700BF6000002057
:101E300014E000E010E000E0314B324A13B51968BD
:101E4000914208D14FF0500383F31188BFF36F8F95
:101E5000BFF34F8FFEE71A682B4B9A4208D14FF021
:101E6000500383F31188BFF36F8FBFF34F8FFEE7EB
:101E7000264B1A78D2B20192FF221A701B78244A9C
:101E8000DBB28DF803309DF8033003F0500313707C
:101E9000204B07221A6000219DF80300000602F182
:101EA000FF3423D401B11A601A68120202F4E0620E
:101EB0001A60019B154ADBB21370174B1A6842F483
:101EC00070021A601A6842F070421A60FFF7A0FFB1
:101ED000124B00221A60FFF7EBFE114A136843F021
:101EE00040431360FFF7D4FEFFF7BAFE9DF80320CE
:101EF0005200D2B28DF8032001212246CCE700BF68
:101F000000ED00E071C20F4170C20F4100E400E03B
:101F1000E4000020E800002020ED00E004000020A4
:101F200034EF00E0EFF305830F2B0ED9104A9B5CD2
:101F3000104A12789A4208D94FF0500383F311885F
:101F4000BFF36F8FBFF34F8FFEE70B4B0B4A1B683E
:101F5000126803F4E063934208D94FF0500383F30F
:101F60001188BFF36F8FBFF34F8FFEE7704700BF3D
:101F7000F0E300E0E40000200CED00E0E8000020C9
:101F800010B50F4B1A68824218D35C681919884241
:101F900001BF4168184609195960446801198A420D
:101FA00007D1084909688A421FBF51681268091998
:101FB00041609842026018BF186010BD1346E1E707
:101FC000FC800020EC0000202DE9F041044600F0E8
:101FD000EBFD3E493E4D0B680BBB3E4A56071FBF0B
:101FE000D01D20F0070002F500431B1A14BF024663
:101FF0004FF400431344083B23F00703364E0B60B5
:1020000000207060326058601860981A1360334B7B
:1020100050601860324B18604FF000432B602F68FF
:10202000274216D1002C41D004F1080358071CBFE9
:1020300023F00703083363B1294A1668B342904678
:1020400007D8254A15686868834204D809688D4214
:1020500007D100242AE02C68002CF7D02A46254618
:10206000F1E7296814681160C21A102A0FD9E8181C
:10207000410708D04FF0500383F31188BFF36F8FEF
:10208000BFF34F8FFEE742606B60FFF779FF1349A4
:102090006B680868F61A1F4386424FF00003C8F8C1
:1020A000006038BF0E6008346F602B6000F024FEC3
:1020B000630708D04FF0500383F31188BFF36F8F8D
:1020C000BFF34F8FFEE72046BDE8F081EC00002013
:1020D000F0800020F0000020FC800020F88000202C
:1020E000F480002010B5044670B3184A50F8043C40
:1020F0001268134208D14FF0500383F31188BFF3E5
:102100006F8FBFF34F8FFEE750F8081C41B14FF0BF
:10211000500383F31188BFF36F8FBFF34F8FFEE738
:1021200023EA020340F8043C00F03EFD084A54F85C
:10213000043C1168A4F108000B441360FFF720FF72
:10214000BDE8104000F0D8BD10BD00BFF0800020F9
:10215000F480002070B51546026C866B044642B9C7
:1021600005689DB9406800F0D9FF65600136A66337
:1021700070BD6DB9806809F01CFAA368226C134425
:102180006268A360934201D32368A3600020EDE757
:10219000C06809F00EFA236CE26821685B421A44B9
:1021A0008A42E2603EBF62689B18E360022DEDD177
:1021B0000EB1013EEAE73046D8E7034610B41A6C88
:1021C000084662B1D9685C681144A142D96024BF55
:1021D0001968D960D9685DF8044B09F0EAB95DF86F
:1021E000044B704770B50446FFF794FD94F84550D2
:1021F00004F124066DB2002D14DCFF2384F8453071
:10220000FFF7AAFDFFF786FD94F8445004F110068D
:102210006DB2002D12DCFF2384F84430BDE870401D
:10222000FFF79ABD636A002BE7D0304600F08EFEC0
:1022300008B100F017FF013D6DB2DCE72369002B08
:10224000E9D0304600F082FE08B100F00BFF013DFE
:102250006DB2DEE738B50D46044640B94FF0500385
:1022600083F31188BFF36F8FBFF34F8FFEE7FFF744
:1022700051FD206CE36B2268A2604343D1181B1A06
:1022800013446160E3600021FF23A16384F84430BC
:1022900084F8453095B9236963B104F1100000F06A
:1022A00055FE38B10A4B4FF080521A60BFF34F8F82
:1022B000BFF36F8FFFF750FD012038BD04F1100010
:1022C000FFF78DFC04F12400FFF789FCF2E700BF63
:1022D00004ED00E070B50D46064640B94FF05003DE
:1022E00083F31188BFF36F8FBFF34F8FFEE748432F
:1022F0004830FFF769FE044638B145B92060E6630F
:10230000256401212046FFF7A5FF204670BD00F19E
:1023100048030360F3E700002DE9FF478946019277
:102320001F46044640B94FF0500383F31188BFF3B2
:102330006F8FBFF34F8FFEE7002940F08880036C5A
:10234000002B00F084804FF0500383F31188BFF31B
:102350006F8FBFF34F8FFEE7019E002E00F082804B
:102360004FF0500383F31188BFF36F8FBFF34F8F8C
:10237000FEE7019D1DB9FFF7EFFC002058E016B9FC
:1023800002A800F025FEFFF7E7FC00F00DFCFFF7C8
:10239000C1FC94F84430FF2B08BF84F8448094F8C3
:1023A0004530FF2B08BF84F84580FFF7D5FC01A915
:1023B00002A800F01DFE002843D1FFF7ABFCA66B7E
:1023C000E56BFFF7C9FCAE4235D1019904F110006D
:1023D00000F0A2FD2046FFF705FF00F08DFC38B9A4
:1023E0004FF08053CAF80030BFF34F8FBFF36F8FA9
:1023F0000126FFF78FFCA26BE36B9A4201D3022FF9
:10240000B7D13A4649462046FFF7A4FE636A1BB19E
:1024100004F1240000F09AFD38B1194B4FF08052BE
:102420001A60BFF34F8FBFF36F8FFFF795FC01204A
:1024300004B0BDE8F0872046FFF7D4FE00F05CFC56
:10244000D6E72046FFF7CEFE00F056FC95E7022FB8
:1024500002D1E36B012B0AD100F00AFE00283FF401
:102460007BAF00264FF00008DFF814A0C1E74FF063
:10247000500383F31188BFF36F8FBFF34F8FFEE7D5
:1024800004ED00E010B5024600210120FFF722FF15
:10249000044638B1002343600360C3601A461946FE
:1024A000FFF73AFF204610BD2DE9F84388469146D4
:1024B0001F46044640B94FF0500383F31188BFF321
:1024C0006F8FBFF34F8FFEE709BB036CFBB14FF07B
:1024D000500383F31188BFF36F8FBFF34F8FFEE775
:1024E00004F1240000F032FD002834D0B9F1000FCF
:1024F00031D00120C9F8000086F31188BDE8F883C7
:1025000001356DB284F8455025E00020F4E7022F34
:1025100002D1E36B012B20D1FFF704FDEFF311860D
:102520004FF0500383F31188BFF36F8FBFF34F8FCA
:10253000A26BE36B9A4201D3022FE6D194F8455087
:102540003A466DB241462046FFF704FE6B1CD7D1D8
:10255000636A002BC4D10120CEE74FF0500383F310
:102560001188BFF36F8FBFF34F8FFEE770B50D4635
:10257000044640B94FF0500383F31188BFF36F8FC7
:10258000BFF34F8FFEE7036C43B14FF0500383F36B
:102590001188BFF36F8FBFF34F8FFEE703680BB94E
:1025A000436873BBFFF7BEFCEFF311864FF0500397
:1025B00083F31188BFF36F8FBFF34F8FA26BE36B71
:1025C0009A4201D3002014E094F8453001325BB206
:1025D000A2635A1C10D1636A0BB9012009E004F10F
:1025E000240000F0B3FC0028F7D0002DF5D0012026
:1025F000286086F3118870BD01335BB284F84530E2
:10260000EBE74FF0500383F31188BFF36F8FBFF3F5
:102610004F8FFEE72DE9FF47884601929946044611
:1026200040B94FF0500383F31188BFF36F8FBFF3AE
:102630004F8FFEE7002940F0A580036C002B00F0CF
:10264000A1804FF0500383F31188BFF36F8FBFF366
:102650004F8FFEE7019E002E00F09A804FF050034E
:1026600083F31188BFF36F8FBFF34F8FFEE7636A69
:10267000E660002B6DD004F124005FE0019D1DB9E0
:10268000FFF76AFB284667E016B902A800F0A0FC35
:10269000FFF762FB00F088FAFFF73CFB94F8443048
:1026A000FF2B08BF84F8447094F84530FF2B08BF17
:1026B00084F84570FFF750FB01A902A800F098FCD0
:1026C000002852D1FFF726FBA56BFFF745FB002D35
:1026D00045D1236833B9FFF71DFB606800F0D8FCD3
:1026E000FFF73AFB019904F1240000F015FC2046A5
:1026F000FFF778FD00F000FB38B94FF08053CAF8BF
:102700000030BFF34F8FBFF36F8F0126FFF702FB3F
:10271000A56B002DB2D041462046E668FFF74DFD7F
:10272000B9F1000FA3D12368013DA56313B900F0EF
:1027300045FD6060236963B104F1100000F006FC00
:1027400038B1154B4FF080521A60BFF34F8FBFF373
:102750006F8FFFF701FB012004B0BDE8F087204632
:10276000FFF740FD00F0C8FACFE72046FFF73AFD3B
:1027700000F0C2FAFFF7CEFAA56BFFF7EDFA002DD5
:10278000C3D17FE700F074FC00283FF463AF00265C
:102790000027DFF804A0B9E704ED00E02DE9F843D5
:1027A00089469046054640B94FF0500383F311889F
:1027B000BFF36F8FBFF34F8FFEE771BB036C63B343
:1027C0004FF0500383F31188BFF36F8FBFF34F8F28
:1027D000FEE795F84460494676B22846FFF7EDFCDF
:1027E000013C731CAC6313D12B690BB901200BE0C6
:1027F00005F1100000F0AAFB0028F7D0B8F1000F97
:10280000F4D00120C8F8000087F31188BDE8F883F0
:10281000013676B285F84460E8E7FFF783FBEFF313
:1028200011874FF0500383F31188BFF36F8FBFF30D
:102830004F8FAC6B002CCCD12046E5E710B5044699
:1028400040B94FF0500383F31188BFF36F8FBFF38C
:102850004F8FFEE7FFF75EFAA46BFFF77DFA204685
:1028600010BD40B94FF0500383F31188BFF36F8F51
:10287000BFF34F8FFEE7806B7047000010B5084A2A
:10288000002302EBC3014C68844204D1002042F8CB
:102890003300486010BD0133082BF2D110BD00BFDA
:1028A0002488002010B5044640B94FF0500383F34C
:1028B0001188BFF36F8FBFF34F8FFEE7FFF7DEFF87
:1028C0002046BDE81040FFF70DBC0000064A136823
:1028D0001968064B19B94FF0FF321A607047126839
:1028E000D268D2685268F8E708810020E0810020B1
:1028F000F8B51B4B1B4E1D680446306804300F466C
:10290000FFF79EF9334640B93168174EC96A3268FD
:102910000120884022EA00023260621C07D137B1F0
:10292000196812480431BDE8F840FFF766B92C4435
:102930001A68A542546007D90D4A10681968BDE8A5
:10294000F8400431FFF765B90A4A10681968043184
:10295000FFF75FF9084B1A68944238BF1C60F8BD56
:102960002882002004810020B08100200082002005
:102970000C81002008810020E08100204FF05003EE
:1029800083F31188BFF36F8FBFF34F8FFEE7000013
:102990002DE9F84F4FEA820A804650460F46994685
:1029A0000B9EFFF711FB0546002800F0968054208F
:1029B000FFF70AFB0446002800F08C80AAF1040A05
:1029C000056355447B1E25F0070A00F134020F37DA
:1029D000597802F8011B13F8011F09B1BB42F7D166
:1029E0000A9D062D28BF06254FF0000B271DE56226
:1029F0006564384684F843B0C4F848B0FFF7FAF885
:102A0000C5F1070504F11800FFF7F4F8C4F84CB05D
:102A10002461A561646284F850B04A46414650463C
:102A2000FFF750F9206006B13460FFF773F9324BBD
:102A3000324E1A68DFF8F08001321A603568002DD6
:102A40004ED134601B68012B1DD108EB05001435F5
:102A5000FFF7C5F88C2DF8D1DFF8D090284D484607
:102A6000FFF7BDF82846FFF7BAF82648FFF7B7F892
:102A70002548FFF7B4F82548FFF7B1F8244BC3F811
:102A80000090244B1D60244A2449136808680133D0
:102A90001360E26A012505FA02F3034314200B6078
:102AA00000FB02803946FFF7A8F8FFF755F91C4BE9
:102AB0001B6863B13368DA6AE36A9A4207D2194B3A
:102AC0004FF080521A60BFF34F8FBFF36F8F2846CD
:102AD000BDE8F88F2846FFF705FB4FF0FF35F6E716
:102AE0000F4B1B68002BCED13368DA6AE36A9A4237
:102AF00098BF3460C7E700BF9C810020048100209C
:102B0000C8810020E881002014820020008200207B
:102B1000088100200C810020AC810020B0810020C1
:102B2000FC81002004ED00E010810020B481002031
:102B300013B5174B019300240094234680221549B6
:102B40001548FFF725FF012814D14FF0500383F3F8
:102B50001188BFF36F8FBFF34F8F104B4FF0FF32D1
:102B60001A600F4B18600F4B1C6002B0BDE810409C
:102B7000FFF762B9013008D14FF0500383F3118899
:102B8000BFF36F8FBFF34F8FFEE702B010BD00BFE2
:102B9000DC81002084C40008312E0008E081002080
:102BA000FC81002028820020024A13680133136050
:102BB000704700BFA8810020014B1868704700BF14
:102BC0002882002008B5FFF7ADF9014B186808BD51
:102BD000288200202DE9F84F3C4B1B68002B53D175
:102BE0003B4B1C6801341C60BCB93A4B1A68126834
:102BF00042B14FF0500383F31188BFF36F8FBFF3DF
:102C00004F8FFEE7344A1968106818601160334A24
:102C1000136801331360FFF759FE314D314F2B68B4
:102C20009C424FF0000B3ED3DFF8A880DFF8C49041
:102C3000D8F80020126872BB4FF0FF322A6032E0F1
:102C400006F1040A5046FEF7FBFFB16A19B106F11E
:102C50001800FEF7F5FFF06AD9F80030012202FAF9
:102C600000F11943204BC9F800104FF0140E5146E3
:102C70000EFB0030FEF7C1FF3868F16AC26A91426C
:102C800028BF4FF0010BD3E7184A136801331360D4
:102C90004FF0000B11E0D8F80020D268D6687168B8
:102CA0008C42CDD229603A680F4BD16A14224A4334
:102CB0009A58022A28BF4FF0010B0D4A1268002AC9
:102CC00018BF4FF0010B5846BDE8F88FA8810020CF
:102CD00028820020088100200C810020E48100204F
:102CE000E08100200481002010810020A4810020C8
:102CF0002C820020B08100202DE9F843314C23685C
:102D000043B94FF0500383F31188BFF36F8FBFF3C4
:102D10004F8FFEE7FEF7FEFF2368013B2360246828
:102D20002CB10024FFF718F82046BDE8F883264BA5
:102D30001B68002BF5D0DFF8A890244FDFF8A480A3
:102D4000D9F80030E3B90CB1FFF7C0FD204D2C6875
:102D500044B1204E0127FFF73DFF00B13760013C31
:102D6000F9D12C601B4B1B68002BDAD01A4B4FF0AB
:102D700080521A60BFF34F8FBFF36F8F0124D1E7EA
:102D8000D9F80C30DC68261D04F11800FEF758FF56
:102D90003046FEF755FFE26A3968012505FA02F36D
:102DA00014200B4300FB028031463B60FEF725FFF9
:102DB0000A4BE26A1B68DB6A9A4224BF054B1D601E
:102DC000BEE700BFA88100209C810020B0810020C8
:102DD000A48100202C82002004ED00E0048100206A
:102DE000E88100201081002008B540B90E4B4FF05B
:102DF00080521A60BFF34F8FBFF36F8F08BD0B4B2C
:102E0000196841B14FF0500383F31188BFF36F8FFE
:102E1000BFF34F8FFEE7FFF7C7FEFFF769FDFFF730
:102E20006BFF0028E2D008BD04ED00E0A88100207F
:102E300008B5174E174C236863B9174B1B68012B55
:102E4000F8D9164B4FF080521A60BFF34F8FBFF383
:102E50006F8FEFE7FFF7A8FE3568FFF74DFF002DF6
:102E6000E9D0FEF757FFF368DD68281DFEF7E8FE9E
:102E70000B4A1368013B13602368013B2360FEF794
:102E80006BFF286BFFF72EF92846FFF72BF9D2E7E7
:102E900014820020A08100201081002004ED00E0B9
:102EA0009C810020174B1A68174B10B512B10122F4
:102EB0001A6010BD1A60154B1B68B3FA83F3DBB2BE
:102EC000C3F11F03142212495A4388188C5844B97D
:102ED0004FF0500383F31188BFF36F8FBFF34F8F11
:102EE000FEE744680832646844600A44944204BFC0
:102EF00062684260142202FB03135B68DA68054BC8
:102F0000D6E700BFA88100202C820020B0810020DD
:102F1000108100200481002010B50C4640B94FF00C
:102F2000500383F31188BFF36F8FBFF34F8FFEE71A
:102F3000054B19681831FEF76CFE20460121BDE8EB
:102F40001040FFF7D5BC00BF0481002038B5C3682E
:102F5000DC6844B94FF0500383F31188BFF36F8FDF
:102F6000BFF34F8FFEE704F118052846FEF768FE11
:102F7000114B1B68E3B9251D2846FEF761FE0F497A
:102F8000E26A08680123934003430B600C4B142052
:102F9000294600FB0230FEF730FE0A4BE26A1B684E
:102FA000DB6A9A4283BF084B01201860002038BDBD
:102FB00029460648EFE700BFA8810020B081002025
:102FC00010810020048100202C820020E881002054
:102FD00008B508B9FFF7D2FC034B1B680360034B2D
:102FE0001B68436008BD00BFE481002028820020E8
:102FF00038B50D46044640B94FF0500383F31188AD
:10300000BFF36F8FBFF34F8FFEE741B94FF050030F
:1030100083F31188BFF36F8FBFF34F8FFEE7FEF787
:1030200079FE0E4B19682B685A1C10D00C4A206888
:1030300012689042626801D091420DD2881A834290
:103040000AD95B1A13442B602046FFF7C1FF002406
:10305000FEF782FE204638BD0124F9E728820020D1
:10306000E4810020014B01221A6070472C8200206D
:10307000054B1B6833B1054B1B68002B0CBF0220AE
:103080000020704701207047FC810020A8810020AB
:103090002DE9F0410446002838D01D4DC36A2A6846
:1030A000D26A934232D282691A4E002AA1BF2A689C
:1030B000D26AC2F1070282611427426907FB0363E7
:1030C0009A4220D100F104084046FEF7B9FD124AA9
:1030D00048B9E06A4743F3592BB91368012181408D
:1030E00023EA010313602B681168D86AE0620123A8
:1030F00083400B4313601423414603FB0060BDE88B
:10310000F041FEF77ABD2B68DB6AC362BDE8F0814F
:103110000481002010810020B0810020F8B5044611
:1031200008B90020F8BD224B1B68984208D04FF028
:10313000500383F31188BFF36F8FBFF34F8FFEE708
:10314000836C43B94FF0500383F31188BFF36F8F43
:10315000BFF34F8FFEE7C16A426C013B914283642B
:10316000DFD0002BDDD1051D2846FEF769FD114E8D
:10317000114A50B9E76A1421794373582BB913687F
:103180000120B84023EA00031360636CE362C3F1DB
:103190000701A1611168012404FA03F008431060DB
:1031A000142000FB03602946FEF727FD2046F8BDEA
:1031B0000481002010810020B0810020044B1A6897
:1031C0001AB119688A6C01328A641868704700BFA6
:1031D000048100200A6810B50C320C4601F006FB91
:1031E00008B994F9040010BD7FB558B90B4B0C49D0
:1031F0000C484FF44A7208F0EFF96FF00F0007B077
:103200005DF804FB01908DF80C10292301A90648F4
:103210008DF80D30FFF7DEFFF1E700BFE1C40008D5
:1032200013C500082FC50008FD44000870B586B01E
:103230000023044600930E4651B93E4B3E4940F2EE
:10324000E7123E4808F0C8F96FF00F0006B070BDF5
:103250000B6020B9374B3A4940F2E912F1E70546D5
:1032600015F8103B03F0F003102B0ED1284606F0A2
:10327000E0FF50B904F1140006F0DBFF002814BF92
:103280006FF00A006FF00E00E0E7284606F0D1FF6D
:1032900048B9284B2B49294840F2F51208F09CF90F
:1032A0006FF00A00D2E794F9080010F10C0FCDDBA3
:1032B00000226946284606F089FF237803F0F003D0
:1032C000102B009B2AD10194ABB11B891E4803939C
:1032D00001A9FFF77FFF009AB2B9A36A13B10121D8
:1032E00020469847636843B994F90800002808BF4E
:1032F0006FF00D00AAE70123E8E701212046FFF760
:1033000073FF6FF00E00A1E71289A36A13B10121C8
:1033100020469847009B3360002097E733B9054B60
:103320000A49064840F23E2208F056F9009B1B6805
:103330001A89EAE7E1C40008E4C500082FC50008BF
:1033400002C600081DC60008BD4300083CC60008B0
:1033500070B50D4686B0114600F0BAFD044600284F
:103360003FD006A98DF80C5041F8140D1E48FFF708
:1033700031FF002835D063682BB11C4B1C491D4818
:10338000892208F029F904F11005284606F051FFBA
:1033900028B9164B184917488A2208F01DF904F17C
:1033A000140006F046FF28B1104B144911488C2236
:1033B00008F012F904F10C06304606F07BFF28B93C
:1033C0000A4B0F490B488F2208F006F9304606F0E9
:1033D0006EFF284606F0DAFE2146072002F0A4FE22
:1033E0000024204606B070BD513E0008E1C400082C
:1033F00074C500082FC5000895C50008AAC50008B7
:10340000CBC5000830B5044687B078B101902923B8
:1034100001A907488DF80D30FFF7DCFE054610B90D
:10342000204600F09BFD284607B030BD0546FAE770
:10343000514100087FB550B90B4B0C490C48FF2295
:1034400008F0CAF86FF00F0007B05DF804FB094BF5
:103450000190002908BF194603910748ADF81020D4
:1034600001A9FFF7B7FEEFE7E1C40008C6C40008F2
:103470002FC5000850CE0008814200087FB558B91A
:10348000094B0A490A484FF4B47208F0A5F86FF0E6
:103490000F0007B05DF804FB06A941F8140D0548BC
:1034A000FFF798FEF5E700BFE1C4000857C5000824
:1034B0002FC50008E1420008F7B504460D4651B992
:1034C000204B214940F28D12204808F085F86FF01A
:1034D0000F0003B0F0BD00260E6020B9194B1C4947
:1034E00040F28F12F0E790F9080010F10C0FF0DBBA
:1034F00004F11407384606F09CFED0B13846324637
:1035000001A906F063FEA36A019F1BB132460121A7
:1035100020469847019A0F4B9A4210D067B906F09F
:1035200005FF94F908300C33A4BFF123237206F091
:1035300009FF6FF00E00CCE72F600020C9E76FF0A5
:103540000C00C6E7E1C4000889C400082FC50008C4
:10355000A9C400086488002073B505460E4659B911
:10356000204B21494FF41D72204808F035F86FF0C8
:103570000F05284602B070BD00220A6020B9194B21
:103580001B4940F27622EFE7037803F0F003102B9B
:1035900024D10620019202F0ABFD0446D8B12846A2
:1035A00001A9FFF743FE054620B12146062002F09F
:1035B000BBFDDEE7019B33B90A4B0E490B4840F2D5
:1035C0008A2208F009F8019B236063600023A3812D
:1035D000A3603460CDE74FF0FF35CAE7FFF726FE62
:1035E0000546C6E7E1C40008E4C500082FC5000889
:1035F00002C600085FD6000870B586B015460A9C62
:1036000050B91D4B1D491E4840F2E62207F0E4FF69
:103610006FF00F0006B070BD027802F0F002102AC1
:1036200009D0154B1749164840F2E72207F0D4FF9E
:103630006FF00500EEE70DB90020EBE7027F92077F
:1036400013D4C3F380068EB9019003910E488DF810
:10365000143001A90495FFF7BDFD0028DAD1002C34
:10366000EAD036B1049B2360D4E70126002CEBD1CD
:10367000DEE72560CEE700BFE1C4000848C60008C9
:103680002FC5000864C60008154400080321FFF791
:10369000ABBD00002DE9F047064617461D46BDF8B4
:1036A00020900C4629B9224B22492348B12207F029
:1036B00093FF8EB91E4B21491F48B22207F08CFFA1
:1036C0003846BDE8F04702F0B5BEB36A73B32A4688
:1036D0003046BDE8F047184773689C4205D0144B4C
:1036E00017491548BA2207F077FF06F1100840463F
:1036F00006F09FFD0028E3D0062002F0F9FC044606
:103700000028DDD00760476005B12D68A56021461F
:10371000A4F80C9040463D8906F04EFD0146002875
:10372000D3D02046BDE8F04700F052BFBDE8F08797
:103730005BC900088DC900082FC50008AFC9000883
:10374000CEC9000810B544680146204603F0E8FAE7
:103750002046094903F0E8FA2046084903F0FCFA3C
:1037600020460749022203F02BFB20460549BDE80D
:10377000104003F007BB00BF213D0008E53D0008F5
:10378000A93C0008893700082DE9F0410E4604469F
:1037900030B9414B414942484FF4C27207F01CFF17
:1037A00065780027042D6760677062D106F0BEFD62
:1037B00094F908300C33A8BF277206F0C3FD002629
:1037C000A36A1BB10022042120469847A36A1BB1BB
:1037D0000022114620469847A36A1BB1002202210D
:1037E0002046984704F11007384606F022FD18B12C
:1037F0000021384606F0E0FC04F11407384606F0D4
:1038000018FD18B10021384606F0D6FC012D02D073
:10381000033D012D33D8237F23F004025B07227779
:1038200038D4636A33B91C4B1E491D4840F2B312A9
:1038300007F0D2FE636A1D681E710C35284606F03B
:1038400039FD30B9144B184915484FF4DB7207F0B5
:10385000C3FE0023636206F069FD94F908300C335F
:10386000A8BF267206F06EFD2846BDE8F04106F0BE
:103870001BBD06F05BFD267206F064FDA0E7636ADF
:1038800043B1054B0949064840F2BD12BDE8F0417D
:1038900007F0A2BEBDE8F0815BC9000886C600083B
:1038A0002FC5000893C60008ADC60008C6C60008AC
:1038B0002DE9F8430F46044630B9744B74497548F6
:1038C00040F2E35207F088FE6378012B06D06F4B7D
:1038D0007149704840F2E45207F07EFE636A33B9E2
:1038E0006A4B6E496B4840F2E55207F075FE63681B
:1038F00033B9664B6A49674840F2E65207F06CFEFE
:10390000636A226ADB689A4206D3604B6549614864
:103910004FF4BD6207F060FE636A227F99681E7CE7
:103920009007226A606801EB0209D968B0F860501C
:10393000A1EB020354BFC6F380084FF00108B3F5B2
:10394000803F2ABF4FF6FF739BB246F00206AB42A0
:103950005FD9B8F1000F59D0002D5CD02A449142B4
:1039600006D24A4B50494B4840F2136207F034FEEE
:1039700033462A464946606805F0ECFA431CDBB240
:10398000012B064669D8B8F1000F47D0636ADB689F
:103990009D4243D2A36A1BB12A4603212046984781
:1039A000237F43F010032377002E4BD1236A1D445D
:1039B000636A2562DA68954202D0B8F1000F3FD001
:1039C000DD600125606805F04BFE10F10C0F01DB96
:1039D000011D53D1636A0022DA600646636A1D68DE
:1039E0001E710C35002363622362637006F09EFC37
:1039F00094F908300C33A8BF267206F0A3FC17B167
:103A0000284606F051FC0020BDE8F88346F0020687
:103A1000A4E71D46A2E76FF00606B7E76368B3F8B0
:103A20006020B2F5866F03D3B3F86230042BBBD9A4
:103A3000A36A002BB8D02A46032120469847B3E753
:103A40003546BFE7721C08D1606805F009FE10F129
:103A50000C0F064601DB031D03D1636A0022DA6006
:103A6000BCE7B8F1000F03D14FF0FF30BDE8F88399
:103A7000636A0022DA606FF00606AFE7002DF3D02C
:103A8000626A156800230C351371ACE75BC9000846
:103A900086C600082FC50008A2C7000893C6000804
:103AA000BFC70008D5C7000807C800082DE9F84FB0
:103AB0008A46044630B9714B7149724840F243322C
:103AC00007F08AFD237803F0F003102B06D06B4B30
:103AD0006D496C484FF4517207F07EFD6378042BFA
:103AE00006D0664B6949674840F2453207F074FDDD
:103AF000636833B9614B6649624840F2463207F069
:103B00006BFD636A33B95D4B62495E4840F24732F0
:103B100007F062FD636A65681B7A032B03F00109F5
:103B200003F0020800F08480B9F1000F05D02B7D6E
:103B30005A1F012A7CD9082B7AD0B8F1000F11D076
:103B4000AF7E17F0100773D12B7D012B0CD1002114
:103B5000284603F02FF927BB42464946284603F082
:103B6000E1FC21E04746EFE7B9F1000F07D0002163
:103B7000284603F0D9F80021284603F01BF9B8F1D4
:103B8000000F03D00021284603F0E6F8002FE3D011
:103B900000221146284603F013F90021284603F0BD
:103BA000F1F8284603F01CFC064660B1431C0AD11C
:103BB000636A93F809B0BBF1000F3FD11FB12846EB
:103BC00003F04CFD5E46636A1D681E71002363624C
:103BD0006370CEB937B1A36A66601BB13246042167
:103BE00020469847B9F1000F05D0A36A63B10022BF
:103BF000114620469847B8F1000F05D0A36A1BB1C3
:103C0000002202212046984706F090FB94F90830E4
:103C10000C33A8BF267206F095FBBAF1000F03D053
:103C200005F10C0006F040FB00263046BDE8F88F99
:103C30000021284603F074F8012785E72B7D012B2E
:103C400006D10E4B14490F4840F2E33207F0C4FC92
:103C5000B8F1000F03D01149284603F07DF8012286
:103C600028460F4903F0ACF828460E4903F08AF8BD
:103C70002146284603F054F8D7E700BF5BC9000887
:103C8000D4C400082FC50008E0C60008FEC600081E
:103C900022C7000893C6000835C70008E53D0008A4
:103CA000A93C00088937000810B5044630B9194B03
:103CB00019491A484FF49C7207F08EFC617801296B
:103CC0001BD12046FFF7F4FD237FDA0613D5626887
:103CD0008AB1B2F86010B1F5866F0CD3B2F86220E9
:103CE000042A08D823F010032377A36A1BB100220B
:103CF000022120469847002010BD0429E4D1626AC1
:103D00001AB1537A0BB1013B537201212046FFF7E0
:103D1000CDFED9E75BC9000886C600082FC500089C
:103D20002DE9F8430546164698460F4629B9284B13
:103D300028492948F92207F04FFC9DBB244B27490D
:103D40002548FA2207F048FC6FF005042046BDE83C
:103D5000F8833846318902F079FF304602F06AFB79
:103D6000F4E7B8F1000F09D006F0E0FA95F9083051
:103D70000C33A8BF85F8088006F0E4FA6EB13789E5
:103D80003146484606F018FA044640B9AB6AEBB132
:103D900001463A4628469847D8E73746F0E74FF0BD
:103DA000FF34D3E76B689F4206D0094B0C490A48A1
:103DB0004FF4807207F010FC05F11009484606F038
:103DC00038FA04460028CCD1002EC2D10024BDE729
:103DD0005BC90008FCC800082FC500081EC9000800
:103DE0003DC9000838B51546044670B9154B16494B
:103DF000164840F2611207F0EFFB002038BD04299D
:103E000008D10121FFF752FE04E041780129F6D1E3
:103E1000FFF74EFD6368002BEFD0B3F86020B2F5DA
:103E2000866FEAD3B3F86230042BE6D8237F23F001
:103E300010032377A36A002BDFD02A4602212046F5
:103E40009847DAE75BC9000886C600082FC5000856
:103E500038B50023056803710446686828BB2B78D1
:103E600003F0F003102B14D0202B1CD106F0E2F845
:103E700068602268506850B113781449222B04BF3F
:103E80000123037406F0ACF823685B686BB9FF2369
:103E90000AE003F0B3FC686020684368002BF6D0AA
:103EA000FFF750FCF0E7FA232371236863B106F0B3
:103EB0003DFA236893F908200C32A4BF22791A72C4
:103EC000BDE8384006F03EBA38BD00BF9536000860
:103ED000F8B5054607200F4602F00AF90446A8B3D4
:103EE000057005F0F0050023102D037243600ED01D
:103EF000202D0CD0164B174917484FF42A7207F0A3
:103F00006BFB2146072002F00FF900241EE004F1AC
:103F100010060621304606F029F901460028F0D1A6
:103F200004F10C0006F08DF9054618B1304606F094
:103F30002DF9E6E704F1140006F080F94FF0FF33A5
:103F40006570A361A7626562256225772046F8BD8A
:103F50005BC9000832C800082FC5000838B543689F
:103F6000044633B1164B174917484FF4387207F01F
:103F700033FB04F1100006F05CF930B1104B13492B
:103F8000114840F2E22207F027FB04F1140006F08A
:103F900050F930B10A4B0E490B4840F2E52207F0C8
:103FA0001BFB04F10C05284606F081F9284606F0B3
:103FB00086F921460720BDE8384002F0B5B800BFB9
:103FC0005BC9000858C800082FC5000886C800084B
:103FD000C0C8000873B500F110050446284606F075
:103FE00028F9B0B91434204606F023F900283DD151
:103FF00002B070BD237803F0F003102B16D1019EA0
:104000003EB1606810B1318902F020FE304602F006
:1040100011FA01A9284606F0FBF80130EAD128463A
:1040200006F0B4F8284606F009F9DBE7019800F03D
:10403000CFFAEEE7019DB5420BD02846FFF7CAFF45
:10404000686818B103F00AFB00236B602846FFF78D
:1040500085FF01A9204606F0DBF80130EAD12046B1
:1040600006F094F8204606F0E9F8C1E7004EF0E7C4
:10407000648800202DE9F0410F469046054620B99E
:104080006FF005042046BDE8F08100F114042046DD
:1040900006F0CFF80028F3D06FB92C49204606F07F
:1040A0008BF802460028EBD1AB6A002BE8D0014622
:1040B00028469847E4E7A96A2878FFF709FF0646EB
:1040C00068B92249204606F077F8024620B9AB6A63
:1040D00013B10146284698474FF0FF34D2E74760B6
:1040E000FFF730FB204686F80880314606F064F87A
:1040F000044618B374680021204602F011FE2046E1
:10410000002102F011FE2046002102F025FE0022CF
:104110001146204602F054FE0021204602F032FEF5
:1041200006F1100400237360204606F02FF82046A5
:1041300006F084F83046FFF711FFCDE7AB6A002B9D
:10414000A0D002460146284698479BE76488002095
:10415000036870B55D7804466DB11B7803F0F00319
:10416000102B06D0404B4149414840F2014207F034
:1041700033FA022D21D1002520682571FFF72AFF8F
:104180002368586860B11A7802F0F002102A32D021
:10419000202A02D1C56105F027FF236800225A605A
:1041A0002068836A13B10022114698472068836A09
:1041B0005BB100220221984707E0032D03D1236859
:1041C0001B7F5B07D7D4FB23237120680C3006F0DC
:1041D00071F8002846D02368002B43D006F0A6F8DB
:1041E000236893F908200C32A4BF22791A72BDE823
:1041F000704006F0A7B85A6A0AB91B6A33B11A4B65
:104200001C491B4840F2354207F0E6F920680423B8
:1042100043700323237200214462FFF747FC08B375
:1042200023685B78042B06D00F4B1349104840F2EB
:104230003B4207F0D1F9114806F064F820680021EC
:104240000C3006F016F80D4806F057F823685B7836
:1042500043B1054B0849064840F23F42BDE8704073
:1042600007F0BAB970BD00BF5BC9000858C70008A5
:104270002FC500086CC7000887C7000868880020A1
:1042800010B5036893F9082012F10C0F04460FDAF9
:10429000027123681BB306F049F8236893F90820DC
:1042A0000C32A4BF22791A72BDE8104006F04AB859
:1042B000FA22027158680028EBD01B7803F0F00353
:1042C000102B07D0202BE4D1A289A16805F034FE81
:1042D0002071DEE7A289A16802F0EAFBF8E710BDD1
:1042E00037B5036893F9082012F10C0F04460FDA72
:1042F0000271236853B106F019F8236893F9082076
:104300000C32A4BF22791A7206F01CF803B030BD3B
:10431000F522027158680028EBD01A7802F0F002FA
:10432000102A46D15B78002B3FD1037D13B1FA23CD
:104330002371DEE70DF10702FF2102F003FC0546C1
:1043400010B99DF80730F3E72068103005F071FFD1
:1043500038B12068103005F019FF2068103005F0E2
:104360006DFF206800232371143005F062FF28B927
:1043700020680621143005F0F9FE207194F904300C
:1043800063B9216802234B704D60284602F0C8FCD7
:1043900023680949586802F00DFDAAE7284603F092
:1043A0001FF8236800225A60A3E7022BA1D1002343
:1043B000BEE7F023BCE700BF75400008F8B5002356
:1043C000037103685A68044612B92368A3B9F8BD9B
:1043D0001B7803F0F003102BF7D185684FF6FF77B9
:1043E000BD4223682E4628BF3E46B1B2586802F04F
:1043F0002DFCAD1BF4D1E8E705F098FF236893F995
:1044000008200C32A4BF22791A72BDE8F84005F0EA
:1044100099BF000010B5036893F9082012F10C0F42
:1044200004460DDA027105F081FF236893F9082034
:104430000C32A4BF22791A72BDE8104005F082BF89
:104440001A7802F0F002102A49D15A7812B1FB23EF
:104450002371E8E75A68002A3FD001225A705A6A4D
:104460000AB91B6A33B11F4B1F49204840F28362CF
:1044700007F0B2F8E36833B91A4B1D491B4840F204
:10448000846207F0A9F82068002144620162FFF706
:104490000FFA30B323685B78012B06D0114B154916
:1044A000124840F2896207F097F8134805F02AFF96
:1044B000206800210C3005F0DCFE0F4805F01DFFE0
:1044C00023685B78012B0CD1064B0A49074840F260
:1044D0008D62BDE8104007F07FB8F523B8E7FA23F6
:1044E000B6E710BD5BC900086CC700082FC50008FF
:1044F0008EC7000887C700086888002010B50446EA
:104500000068436863B1037803F0F003102B07D110
:10451000227A4378032A01D0022B01D0032B0ED13B
:10452000F523237105F002FF236893F908200C326C
:10453000A4BF22791A72BDE8104005F003BF012B19
:1045400001D1FB23EDE7D30701D5FFF743FD236836
:104550005A6A0AB91B6A33B1184B1949194840F213
:104560001C7207F039F8206804234370446200216C
:10457000FFF79CFA08B323685B78042B06D00F4B37
:104580001149104840F2217207F026F80F4805F053
:10459000B9FE206800210C3005F06BFE0B4805F0D9
:1045A000ACFE23685B7843B1044B0749054840F2F1
:1045B0002572BDE8104007F00FB810BD5BC90008B8
:1045C0006CC700082FC5000887C70008688800204E
:1045D00010B5044660B1006820B101F02BFF002344
:1045E0006360236021460620BDE8104001F09CBDB9
:1045F00010BD000008B540B90F4B1049C222104849
:1046000006F0EAFF6FF00F0008BD19B90A4B0D491B
:10461000C322F4E71AB9084B0B49C422EFE74368F9
:1046200033B15B680B6043685B891380002008BD71
:104630006FF0010008BD00BFECC900085BCA0008AC
:104640002FC5000874CA000891CA000808B540B90F
:10465000094B0A490A48DC2206F0BEFF4FF0FF3042
:1046600008BD43681B68002BF8D043601868B0FA97
:1046700080F0400908BD00BFECC90008AACA0008C4
:104680002FC500081D4B1B6807B513B11C4A1068E5
:1046900098471C481B4D1C4E1C4C05F02EFE28460E
:1046A00005F030FE01A9304605F05AFB284605F01A
:1046B00024FE019B33B9234669221549154806F0AB
:1046C0008BFFECE71A78032A0BD0042A0FD0022ABA
:1046D00011D1181D07C890470199092001F024FD48
:1046E000DDE798685A68904701990820F6E75A680C
:1046F00098689047D3E723469B22DEE73482002068
:1047000038820020688800203082002021CB0008F9
:1047100051CB00082FC50008F8B5074610480E46D3
:10472000154605F086FD28B90E4B0F490F48B522F6
:1047300006F052FF092001F0DBFC044668B10223B9
:10474000037047608660C5600146054805F034FD8A
:1047500028B12146092001F0E7FC4FF0FF30F8BDF9
:104760003082002021CB000814CB00082FC50008A0
:1047700091F82B3013F0180F14BF024A024AFFF7CA
:10478000CBBF00BF65A0000811520008F8B507466E
:1047900012480E46154605F04CFD28B9104B11493C
:1047A0001148EE2206F018FF082001F0A1FC044693
:1047B00088B10323037047608660014607481DB136
:1047C00005F0EEFC0020F8BD05F0F6FC28B121460E
:1047D000082001F0A9FC4FF0FF30F8BD3082002026
:1047E00021CB000814CB00082FC5000870B5064C7B
:1047F0000E460546204605F080FD3046A847204677
:1048000005F080FD002070BD6888002037B50546A2
:104810000C4600F040F8134B13481D60134B062163
:104820001C6005F0A3FC30B1114B1249124840F254
:10483000D51206F0D1FE114805F050FD30B10C4BF9
:104840000F490D4840F2D91206F0C6FE032300932B
:1048500000224FF480630B490B4805F056FD03B06E
:1048600030BD00BF3482002030820020388200201A
:1048700021CB0008C3CA00082FC5000868880020A3
:10488000E6CA00088546000807CB000840BA80B297
:10489000704700BA704708B505F014FD01F0B6F98D
:1048A00001F018FC01F063FC05F0ACFA02F0FEF830
:1048B000BDE8084005F02ABA70B51826074C4643F3
:1048C0000546A05918B101F0B5FD0023A3511823E6
:1048D00003FB05440023237570BD00BF3C8200200C
:1048E0002DE9F3470B9D894692469846074630B915
:1048F0002C4B2D492D484FF48B6206F06DFE0022A3
:104900001C21022001F000FE0646002847D0438902
:104910001B2B06D8234B2649244840F2644206F05C
:104920005BFEBDF834007468FFF7B0FFE08097F8D5
:104930002430062B06D01B4B1E491C4840F26B420C
:1049400006F04AFED8F80030A360B8F80430A3811E
:104950002B68C4F81230AB88E3820A9B1B68C4F84A
:104960000E300C9B1B68A361012363700823A370A6
:104970000623237104230025637140F60603257086
:10498000E5704A46009331465346384605F0B6FB7B
:10499000304601F04FFD284602B0BDE8F0874FF0E9
:1049A000FF30F9E764CC00089BCC00082FC5000855
:1049B000A9CC0008DACC00082DE9F74F3E4B019155
:1049C0000A220546002094461446814680468346C6
:1049D00096461E46BEF10A0F1F7D12D19FB94FFAAF
:1049E00080FE01300A2803F11803F3D1019B9907D7
:1049F00004D4BEF10A0F1CD1DB0735D44FF0FF30D1
:104A000009E0002FEDD0002D4AD029688A46596868
:104A10008A4545D140B203B0BDE8F08FC245E0D32E
:104A20004FFA80FCD046DCE7CA4524BF44B2D146E9
:104A3000D7E75FFA8EF7182303FB07631B7D33B1BB
:104A40001E4B1F491F4840F2871206F0C5FD25B1D5
:104A5000182303FB07632A685A60182303FB0766C1
:104A60000023738278B2D6E70A2C0FD01823E7B25E
:104A70005C43335933B1114B1349124840F26F1262
:104A800006F0AAFD3846FFF717FFD4E7BCF10A0F7E
:104A900002D05FFA8CF7F5E70A2AAFD0D7B2F1E778
:104AA000012FB3F812A0BFD11F68002FB6D0DA458E
:104AB00097D342B2D34694E73C82002064CC0008EE
:104AC00086CB00082FC500086FCB000870B5084DD5
:104AD000064600242B7D2BB1AB68B34202D12046A1
:104AE000FFF7EAFE01340A2C05F11805F2D170BD7A
:104AF0003C8200202DE9F047804686B00C4649B93B
:104B0000464B474947484FF4227206F065FD06B010
:104B1000BDE8F08745682B88B3F5807F08D12B79F5
:104B2000062B05D16B79042B02D16B88082B03D09F
:104B3000404601F07FFCEAE74E68D5F80E30059359
:104B4000AB6916B19B1B5E425E4194F82430002E87
:104B500014BF4FF001094FF00209062B05F10807B9
:104B600006D02E4B30492F4840F2AB1206F034FDF0
:104B7000059800283CD0214600F095FC8246B8BB41
:104B8000059B03F0F003E02B32D0494605A8FFF760
:104B900013FF00282CDB254B182202FB00F103EB4E
:104BA000010E4FF0020C8EF814C04FF00C0CCEF832
:104BB000084012FB00C23868985003EB020CBA8818
:104BC000ACF8042053F80190AEF812A0B9F1000F30
:104BD0000ED043F801A04FF40063009304F12502C6
:104BE0003B464946204605F089FA484601F022FC3A
:104BF000EB88B3F5807F9BD1002E99D002220392DF
:104C000005AA04F125030292221D009201973A465B
:104C100019462046FFF764FE8AE700BF64CC00080F
:104C20009BCC00082FC50008CECB00083C8200209A
:104C30001FB5024600F125030291012405490191A7
:104C4000043200920394044A1946FFF749FE04B067
:104C500010BD00BFD4E2000868E20008F8B5134CAC
:104C6000002502260427227C6AB1E38901339BB226
:104C7000B3F5967FE38103D2012A0AD1042B0CD924
:104C80002846FFF719FE01350A2D04F11804EAD170
:104C9000F8BD032A06D12774F5E721466068FFF7BF
:104CA000C7FFF0E7042AEED12674ECE7408200202B
:104CB0002DE9F043274D1446182202FB045285B01B
:104CC000127D012A0646884606D8234B23492448EC
:104CD00040F2ED2206F080FC182101FB045906F198
:104CE000250799F81430022B0DD1B9F81230B3F51D
:104CF0008E7F17D9494604313046FFF799FF10B926
:104D0000032389F81430182303FB04534FF4006283
:104D100000920C333A464146304605F0EFF905B0B3
:104D2000BDE8F083B3F5877FEDD304EB4403DB00EC
:104D300003F10C0204332B4402930A4B019301212B
:104D4000331D039100932A443B4639463046FFF712
:104D5000C7FDD4E73C82002064CC0008F2CB0008F9
:104D60002FC50008D4E200082DE9F34789468046A4
:104D70000146D9F80000164600F095FB04460028CD
:104D80005ED1D9F8003003F0F002E02A58D0002BB1
:104D900056D001214846FFF70FFE051E53DB404F5A
:104DA000182303FB05731A7D1AB901241C75C3F877
:104DB0000880182303FB05731B7D33B9394B3A492F
:104DC0003A4840F2C93206F007FC0CB9002E3CD13B
:104DD00049464046FFF72CFF002E38D102B0BDE80F
:104DE000F087FBD1DFF8BC80DFF8C890DFF8BCA00B
:104DF00034469CB9304601F0DBFC002E4CD0B04666
:104E0000182303FB05F21C46B85808B101F012FB49
:104E100004FB05F3002047F80380DFE7628923895C
:104E20009A4208D1236833B143464FF47B72494616
:104E3000504606F0D1FB237B012B1ED12468D8E716
:104E40006FF00F00CAE72846C8E74FF0FF3018237D
:104E500003FB0572127D012AC3D9154A15700C2275
:104E600013FB05234FF4006200923B4408F1250236
:104E70003146404605F042F9B0E700222189022080
:104E800001F042FB804638B1314601F0E7FC0028D2
:104E9000B6D0404601F0CEFA4FF0FF309EE700BF9B
:104EA0003C82002064CC000822CC00082FC50008FA
:104EB0002C8300204ACC0008F0B50E4685B015467C
:104EC000044630B93E4B3F493F4840F21B3206F0A2
:104ED00083FB36B93A4B3D493B484FF4477206F0E5
:104EE0007BFB35B9364B3A49374840F21D3206F064
:104EF00073FB2146286800F0D6FA00285BD12B68A6
:104F000003F0F002E02A1DD101238DF808305E2362
:104F10008DF80A306B788DF8090003F07F038DF867
:104F20000B30AB788DF80C30EB788DF80D3002AB90
:104F30004FF400620092314604F12502204605F04C
:104F4000DDF81FE06268A1685A400A4208D09BB2AF
:104F50004FF6A962934203D0E36873B304F10C05E2
:104F60001C4B1D491A78182000FB0210017D0129F5
:104F7000194609D92F6843689F4205D1314620461A
:104F8000FFF796FE05B0F0BD134B0022187D0128F7
:104F900006D92F685868874202D1D2B20A70EDE76D
:104FA00001320A2A03F11803F0D13246294620467D
:104FB000FFF7DAFEE6E7094BBAE76FF00300E1E737
:104FC00064CC00089BCC00082FC50008A3D60008BD
:104FD000AFCB00082C8300203C82002068E2000850
:104FE000F0B5044687B00F46164624210022012062
:104FF00001F08AFA0546A0B34389232B06D81A4B41
:105000001A491B484FF4B17206F0E6FA22686C6840
:10501000002323716371A371E371277066701346D7
:1050200004F1080102F11C0053F8046B41F8046B11
:105030008342F9D106AED36846F8043D304600F00D
:10504000BBF858B100210123A170E17032460290F3
:105050008DE80A002846FF2300F014FA284601F0E4
:10506000E9F907B0F0BD00BF82CD0008B7CD000858
:105070002FC500082DE9F043444BD3F8089099F868
:10508000005005F00F05AD00132D85B0044688468D
:105090001F462AD94289032A27D942681278082A4A
:1050A00023D1586900F0F002E02A1ED0196800F000
:1050B000FAF90646C8B92389072B16D905F10E015E
:1050C000204601F0B1F900284FD021892944324609
:1050D00089B2022001F018FA064630B1428905F182
:1050E00008039A4207D201F0A5F9204605B0BDE8B1
:1050F000F04301F09FB949462A46406806F059FA44
:105100006942304601F090F938B1214B21492248DB
:10511000AF2206F061FA3046E5E72146304601F05D
:105120009DFB0028F7D1204601F084F9344629463A
:105130002046666801F078F902460028D5D16168FA
:105140007B69CB603B690B61FF233070B070F070FE
:105150000B728872C872012101910090CDF808800D
:105160000E49204600F08EF9BFE7C5F57F41F231C8
:1051700009B2204601F058F90028D8D0044B08495C
:105180000548C02206F028FAAFE700BF6C8800206F
:1051900082CD00081BCD00082FC5000880880020A4
:1051A00050CD00080A4604300321FFF719BF0A4614
:1051B00004300B21FFF714BF30B5134B1B686BB9DC
:1051C000124A1268EAB192F82B1001F00501052984
:1051D00017D15168002918BF134612E093F82B40ED
:1051E00004F00502052AE9D15A68002AE6D00168D0
:1051F0009D684A402A4204D0A207DFD4DA6891426F
:10520000DCD1184630BD00BFD4D70020D8D700204D
:105210002DE9F84F476897F800904FEA1913042BCF
:105220000546884605D0284601F004F90020BDE86F
:10523000F88F7888FFF72AFB2B8909F00F09834242
:105240004FEA8909044603D90146284601F038FA95
:105250006B894B45E7D32B89A342E4D3B9F1130FF4
:10526000E1D93B69494C636103F0F003FA682261BC
:10527000E02B39D198F82B30DA0703D5D8F8043071
:10528000002B58D100264146206900F00CF9002877
:10529000C9D1236903F0F003E02BC4D0002EC2D0A3
:1052A000FB8823F0C00333B1284600F02BFA0546F3
:1052B0000028BBD04768A76084E840013B7803F032
:1052C0000F039B00C9F100012846A38101F0ACF84F
:1052D0007B7A062B3DD0112B2FD0012B3ED141469E
:1052E0002846FFF7C7FE2CE0DFF8A4B046464FF093
:1052F000010A96F82B30DB0704D4BAF1000F0DD168
:10530000366810E07368002BF7D060698342BAD02A
:10531000314600F0C8F80028EFD0B4E7237D7F2B9A
:10532000B0D0DBF80060464508BF36684FF0000A91
:10533000002EDED1A6E74646A5E74146284604F002
:1053400063FD002323606360A360A3812361636125
:105350006CE74146284603F019F8F2E731466069E8
:1053600000F0A1F868B9636903F0F003E02B08D0FE
:105370004946284601F05BF86F6002212846FFF796
:1053800011FF284601F056F8DBE700BF6C880020CB
:10539000D4D700202DE9F3471F46C389DDF83080BC
:1053A000012B05468A46164606D0304B3049314817
:1053B00040F2333206F010F9002E47D0142128466F
:1053C00001F032F800284ED16B896C68132B06D897
:1053D000264B2949274840F2613206F0FDF89DF836
:1053E0002C302772637233682361452323709DF844
:1053F000283063702889DFF88890FFF747FA002784
:105400006080A771E771B9F80000FFF73FFAB9F8BB
:105410000030A0800133A9F80030BAF1000F12D19A
:10542000164B1B68E360A772E772B8F822309BB195
:105430002A899A4210D932464146284600F00CFB90
:1054400002B0BDE8F087DAF80030EBE76B6802AE37
:105450001B6946F8043DE8E7D8F81430324629467F
:1054600040469847ECE76FF00100E9E7E3CD00081C
:1054700017CE00082FC5000823CE000850CE000824
:105480002E830020F0B4069C9DF810509DF8146007
:105490001AB109B10F6807B9211D06940596049544
:1054A000F0BCFFF777BF431E033311D891F82B30C0
:1054B00013F002030ED04A6890420BD08B68424032
:1054C0001A4207D1DB4383430CBF01200020704701
:1054D000012070470020704738B50C4B1A68824293
:1054E00004460D4607D102681A6021460420BDE833
:1054F000384000F019BE31B9054B0649064840F264
:10550000451206F069F823682B60EEE7348300202B
:1055100039CF000872CF00082FC5000881422DE95D
:10552000F84F05460F4605D12F4B30493048AB2286
:1055300006F052F847B13B689D4205D02A4B2D49F1
:105540002B48AD2206F048F86E6873689A8892BBC3
:105550001A686A6005F11C0105F1080252F8040B93
:1055600043F8040B8A42F9D101213046FFF71FFEB0
:10557000304601F015F90446304600F05BFF6E68D6
:10558000DFF86480DFF87890DFF864A0AEB92846D1
:10559000194D3946FFF7A0FF2B88A34205D2124BC5
:1055A00016491348D22206F017F82B881B1B2B80B4
:1055B0002046BDE8F88F0024E1E773683046D3F851
:1055C00000B001F0EDF80444B4F5803F05DB43463C
:1055D000CC224946504605F0FFFF3046A4B200F009
:1055E00029FF5E46D2E700BF39CF00088BCF000805
:1055F0002FC5000897CF000830830020C6CF0008D1
:10560000A9CF00082DE9F041DFF86C8006460F466F
:1056100000250024D8F800302146A646204653B97C
:1056200010B1FFF77BFF0544BD4201DA012CF0DC2D
:105630002846BDE8F081D6F80CC05A69624509D108
:10564000D6F810C09A69624504D1B3F80CC0B2888C
:10565000944508D0013460B1C27F93F81FC09445CF
:105660009CBF714618461A68002A18BF9E4613460A
:10567000D5E771461846F6E73483002010B5044696
:1056800030B9064B0649074840F2AE2205F0A4FFA8
:1056900021460520BDE8104000F046BD39CF000886
:1056A0005FD600082FC5000810B5044630B9084B76
:1056B000084909484FF42E7205F08EFF606908B161
:1056C00000F0B8FE2046BDE81040FFF7D7BF00BF8E
:1056D00039CF0008E1CF00082FC5000838B5084BC6
:1056E0001868002400B938BDC37F056823B1013BA9
:1056F000C37704462846F5E72146FFF70FFFF9E791
:10570000348300202DE9F74F45682B7803F00F0311
:10571000052B074640F08C80E888B44CFFF7B6F8BC
:10572000C0F30C004FEAC0096888FFF7AFF82B7888
:1057300003F00F03A0EB830083B23846019301F01E
:105740002FF8238803440A2B824668DCA84E34686D
:10575000002C72D1042000F0CBFC044658B951460D
:105760002846FFF74FFF824562DC042000F0C0FCB2
:10577000044600285CD020220021204605F024FFAA
:105780000323E3773368236034602B4604F1080277
:1057900005F1140153F8040B42F8040B8B42F9D1C4
:1057A000B5F806B01BF0200B08D1019B4B449BB20F
:1057B00099453DD84FF6EB72934239D87D68688899
:1057C000FFF764F895F8008008F00F08A0EB880850
:1057D000E888FFF75BF8C0F30C001FFA88F8C000F8
:1057E0007E68D4F804E0B08008EB000300259BB28B
:1057F00035707570B570F570F38072464FF0010822
:1058000052BB002D40F09280BEF1000F7DD0794B4D
:1058100079497A484FF4DA7205F0DEFE75E0014608
:105820002846FFF7EFFE18B1238853440A2B8DDD7D
:10583000384600F0FFFD0025D4E0EB6862699A422B
:1058400008D12B69A2699A4204D1A289AB889A42F5
:1058500000F0DC8024687BE7D2F804C0BCF80410B8
:10586000884254D23260002D4DD0EA889042C0F078
:1058700091808B4200F28E802F60904240F0E48055
:10588000BBF1000F04D0A37F13F0010300F0DA8016
:10589000B8F1000F59D14FF00008544E33889A44A4
:1058A000A6F800A0BBF1000F07D1019B9944A37F8C
:1058B000A4F81C9043F00103A377B8F1010FBAD10B
:1058C000A38B1433A38363685D682F6804F1080316
:1058D0002A4604F11C0153F8040B42F8040B8B42D6
:1058E000F9D1A08BFEF7D2FF00236880AB71EB717A
:1058F000AB72EB726568002F57D13D4B19688C4233
:1059000065D1394665E08B4244D86760B8E741D03D
:10591000BCF8062082423DD825B1EA888A4218BFE9
:105920004FF00008DCF80020654669E7EB88834209
:1059300006D9304B3249314840F2AB1205F04CFEEB
:105940002F60EA88B3889A4298E76368002BA2D058
:1059500059688B88002B9ED133689BB9B14206D120
:10596000244B284925484FF4EB7205F035FE336887
:10597000002B92D01F4B244920484FF4EC7205F0C5
:105980002BFE8AE75A68F0889388984283D113687F
:105990001646E2E7384600F003FF144A1388181A47
:1059A0001080384600F046FD42E7D7F804806FF0DB
:1059B0001301384600F038FD3946284600F014FF40
:1059C000D8F8007097E70B689C4202D0194600296E
:1059D000F9D12046FFF780FD284600F0E1FE33882C
:1059E000181A3080284603B0BDE8F08F30830020BD
:1059F0003483002039CF0008D3CE00082FC500081B
:105A0000B5CE00080ACF000817CF0008E888FEF7D7
:105A10003DFFC0F30C0000287FF4C2AEE089FEF722
:105A200035FFC0F30C0000283FF4BAAE2B4604F15A
:105A3000080205F1140153F8040B42F8040B8B42E1
:105A4000F9D1ADE6984628E7BBF1000F3FF423AF4C
:105A50004FF0000817E700BF2DE9F04FB1F82280A2
:105A60008BB00823A8F1140898FBF3F81FFA88F309
:105A70000693436808921E78029306F00F06B6005C
:105A8000142E07468B460BD05A4B5B4940F2E1225D
:105A90005A4805F0A1FD6FF005000BB0BDE8F08F8E
:105AA000029BD888FEF7F2FEC0F30C0310F40054FA
:105AB000049304D04F4B524940F2E622E8E73D8977
:105AC0001FFA88F8143D4FEAC803ADB207930DB929
:105AD0002846E2E7079BAB42A8BF2B469BB20022B9
